:10000000E5C20000FFC20000FDC20000FBC200000C
:10001000F9C20000F7C20000F5C20000F3C2000000
:10002000F1C20000EFC200000C9411170C94551699
:100030000C944D1CE7C20000E5C20000E3C20000C2
:10004000E1C20000DFC20000DDC20000DBC2000030
:10005000D9C200000C941B1CD5C20000D3C2000002
:10006000D1C20000CFC20000CDC20000CBC2000050
:10007000C9C20000C7C20000C5C20000C3C2000060
:10008000C1C20000BFC20000BDC20000BBC2000070
:10009000B9C20000B7C20000B5C20000B3C2000080
:1000A000B1C20000AFC20000ADC200003B043E047C
:1000B00044043D04400443044204E7045B05EF04A8
:1000C000B904BD04F304C004F6040105CB045105D2
:1000D000CF040505D30409053305D7040D053D05F7
:1000E000DD0413051D05C404FA04C704FD04E2047D
:1000F0001805290549054B05B504EB0464054C06B4
:100100004C067F067F06F8061607130813081B0720
:100110008F07A007A0075D1484143D1684143D16B4
:10012000CF14F1143D16F215021635002B002921CB
:10013000E100E00000001E00140004001D00E200C9
:1001400029241F001A0016001B0001002152200064
:100150000800070006004A002C00210015000900D5
:1001600019004D00E300220017000A0005000000FE
:10017000C2522D00460000004C000000C3522E0069
:100180002602000027020000A90023001C000B002B
:1001900011000000A800240018000D0010002F001E
:1001A000AA0025000C000E003600300028002600B2
:1001B00012000F0037002F022A41270013003300DE
:1001C000380030022B382A0031003400E500E4000A
:1001D00000002900010001000100010000003A00B8
:1001E0001E021E021E00010001003B001F021F0232
:1001F0001F00010001003C002002200220004B00F3
:1002000001003D002102210221004E00AE003E000F
:100210002202220222000000AC000100480000007F
:100220002A000000AB0001002F0000003000000099
:10023000AC003F002302500023000000AB00400050
:100240002402510024004A00AE0041002502520061
:1002500025004D000100420026024F00260001004B
:1002600001004300270233122700E60001002A00A4
:1002700031023402E500E400000001000100010049
:100280000100010000003A003F0044006B00010043
:1002900001003B00400045006C00010001003C00F3
:1002A000410068006D00010001003D00420069004E
:1002B0006E00010001003E0043006A006F00000074
:1002C0000100010001000000010000000100010028
:1002D0002602000027020000010023025200510004
:1002E0002E00000001002402240021001E0027002F
:1002F00001002202250022001F00630001002102EC
:100300002600230020008500010001005600570050
:10031000550054000100010001000100010001002E
:10032000000001000100017E007E010000000100CC
:100330000100010028780100D3000100DB00CF009C
:1003400027780100D2000100CD00CE00010001009D
:10035000D1000100DC00D0002A780100010001007A
:10036000D900DA0029780000010001000100000036
:10037000290000000100007C0100000001000000D5
:100380000100010001000100010000000100010066
:100390000100500001000100010001005200510065
:1003A000010001002C00010001004F0001000100CC
:1003B00001000100010001000100E600E70001006A
:1003C00001002800E500E400000005010980A1010A
:1003D000850319012AB700150126B700950175108C
:1003E0008100C0050C0901A101850419012AA002A0
:1003F000150126A002950175108100C005010906AE
:10040000A1018506050719E029E7150025019508D2
:10041000750181020507190029EF1500250195F0E6
:1004200075018102050819012905950575019102DB
:10043000950175039101C005010902A1010901A1FE
:100440000005091901290815002501950875018184
:10045000020501093009311581257F950275088152
:100460000609381581257F950175088106050C0A56
:1004700038021581257F950175088106C0C0066088
:10048000FF0961A1010962150026FF00952075088A
:1004900081020963150026FF00952075089102C0AE
:1004A00005010906A101050719E029E71500250145
:1004B00095087501810295017508810105071900EC
:1004C00029FF150026FF009506750881000508190B
:1004D0000129051500250195057501910295017504
:1004E000039101C009027400040100A0FA0904008C
:1004F000000103010100092111010001224400074C
:10050000058103080001090401000203000000093D
:1005100021110100012222000705830320000107A9
:10052000050403200001090402000103010200097F
:100530002111010001224700070582031000010973
:100540000403000103000000092111010001226DD4
:1005500000070585032000011201000200000008C9
:10056000973274490001010203011A037700610008
:10057000670064006E002F0071006D0076004E0071
:1005800079004C00000016034500720067006F0000
:1005900064006F007800200045005A000000280326
:1005A0005A005300410020005400650063006800B9
:1005B0006E006F006C006F006700790020004C0037
:1005C00061006200730000000403090411241FBECF
:1005D000CFEFDAE0DEBFCDBF11E0A0E0B1E0ECEF9D
:1005E000FFE302C005900D92AE38B107D9F722E0C3
:1005F000AEE8B1E001C01D92A33BB207E1F79AD685
:100600000C94FC1FFDCC90E0FC01EA5DFE4F2081C4
:1006100021111AC0F894FC01E85EFE4F8081E82F9A
:10062000E295EF70F0E031A1282F2F7081E090E08B
:1006300001C0880F2A95EAF7982F9095932391A3EC
:1006400092A1892B82A378940895A6E0B0E0EBE212
:10065000F3E00C946E1F26E0FC01DE011196019080
:100660000D922A95E1F7FC01258189819A81222347
:1006700059F0662349F00E942718182F682F8981A6
:100680009A810E94961803C00E946218182F6981EF
:100690007A81812F0E941F0F2696E3E00C948A1F17
:1006A0000E9414192FEF84E39CE021508040904079
:1006B000E1F700C000000895A4E3B0E0E2E6F3E053
:1006C0000C946D1F4FA758AB69AB7AAB8BAB9CAB4F
:1006D000911110920C028E01085D1F4F87E0D80126
:1006E0001D928A95E9F786E0FE01BF96D801019038
:1006F0000D928A95E1F78CA58823D9F061E0C801B5
:10070000A4DF8091C601882389F08DA5811102C0E4
:1007100087E001C086E0898388A58A8389A58B83C9
:100720008EEF8C83CE0101960E94761361E0C801A2
:100730008CDF87E0FE01B896DE01919601900D9264
:100740008A95E1F7CE0181960E943C1181112CC05F
:1007500087E0FE01B196DE01119601900D928A9517
:10076000E1F76DA1662301F12091D00130E0C901CC
:100770000196877099274091090250E084179507E8
:1007800061F16D8397E0929FD001939FB00D11248A
:10079000AF52BE4FFE01319601900D929A95E1F74E
:1007A0008093D0010E94DA1017E0809109029091A5
:1007B000D0018917F9F0189FC00111248F529E4F64
:1007C0000E943C118823B1F08091090290E00196CB
:1007D0008770992780930902E8CF0E94141910921C
:1007E000D00110920902E9ECF1E087E0DF011D92EF
:1007F0008A95E9F7E496E4E00C94891F982F929586
:100800009F7019F0892F24E001C020E0982F969561
:10081000969511F02E5F892F982F969509F02F5FEE
:10082000822F089527982F982F98089526982E980C
:100830002E98089525982D982D980895279A2F9AE7
:100840000895269A2E9A0895259A2D9A0895CF9361
:10085000DF93D82FD3DFC82F5E98ECDFE7DFE2DF2E
:100860008C2F90E0FC013197E730F10570F4EA5AE3
:10087000FF4F0C94E91FE8DF08C0E6DFE2DF05C0A8
:10088000E3DF02C0E1DFDDDFD9DF8D2FDF91CF9124
:100890000895A0E0B0E0EFE4F4E00C94681FFC01E0
:1008A0002481222309F4ECC38C0161E0CEDEEC014B
:1008B00081309E47C9F5F80185818823A9F190917F
:1008C000A20181E0890F8770987F853020F4892B01
:1008D0008093A20102C09093A2018091A20187702F
:1008E000FFEF8F9FC001112495958795959587956A
:1008F0009927909389008093880090938B00809330
:100900008A0090938D0080938C004091A2015091B9
:10091000A3016091A4017091A5018FE090E00E9475
:10092000BA1F8091C50193DFF8018581882309F4FE
:1009300006C19E0130572332310508F0DBC084E048
:1009400090E00E94A31F9093AD028093AC02FE0141
:10095000E150F047E232F10520F4E35AFF4F0C94E6
:10096000E91F8091AC028160ACC08091AD028860CB
:10097000B4C08091AC028260A4C08091AC0220C05F
:100980008091AC0288609DC08091AD021EC08091B4
:10099000AD028260A2C08091AC02806192C0809161
:1009A000AC0280628EC08091AC0280648AC00E94DA
:1009B00014198091AC02806884C08091AC02886078
:1009C00084607FC08091AD028260816086C080912A
:1009D000AC028E7F76C08091AD02877F7EC0809111
:1009E000AC028D7F6EC08091AC0220C08091AC02C1
:1009F000877F67C08091AD021EC08091AD028D7F60
:100A00006CC08091AC028F7E5CC08091AC028F7D07
:100A100058C08091AC028F7B54C00E941419809101
:100A2000AC028F774EC08091AC02877F8B7F49C02C
:100A30008091AD028D7F8E7F50C08091AC0282FB91
:100A4000222720F991E0922790FB82F990FB83F90D
:100A500038C08091AD02982F909591708E7F892B30
:100A600090FB81F93AC08091AC0286FB222720F9E5
:100A700091E0922790FB86F924C00E94141980917E
:100A8000AC0287FB222720F991E0922790FB87F99F
:100A900018C061E001C060E08EE090E00E94A81FF5
:100AA0001EC08091AC0284FB222720F991E092279E
:100AB00090FB84F906C08091AC02982F909590FB32
:100AC00080F98093AC020BC08091AD0283FB22279A
:100AD00020F991E0922790FB83F98093AD02609119
:100AE000AC027091AD0284E090E00E94C21F0E94AF
:100AF000141913C0C6312CE7D20731F580913502A5
:100B00008A7A91E009F490E0909392018111B6C243
:100B100089E20E94AD1C0E94581080910A028770E1
:100B200009F4AEC2F8018581882309F4A9C2809135
:100B3000AD0282FFA5C282E00E94AD10A1C2C63103
:100B4000FCE7DF0709F490C29E01205E32452032A7
:100B50003105A8F4811115C0CF7181E090E09C01AE
:100B600002C0220F331FCA95E2F7E901622F83E02A
:100B700090E00E94A81F8C2F0E94E718CECF8823F8
:100B8000A9F1C3303CE7D307D9F040F4C1159CE785
:100B9000D90789F0C130DC47C9F028C0CB35FCE764
:100BA000DF0709F1CC352CE7D207A9F0CA35DC47BD
:100BB000E9F481E019C081E073DD0E94E91BADCF4B
:100BC0006FEF7FEF80E090E00E94C21F80E068DD61
:100BD0000E94DE1BA2CF8091AD0282FB882780F9A4
:100BE00091E0892701C080E00E94C410F80185814E
:100BF000C081D181882349F0CE010E942718F82EA8
:100C0000682FCE010E94961804C0CE010E9462187F
:100C1000F82EBE018F2D0E941F0F0E943C0FF82E50
:100C2000C92FD82EF801D581E680E2949FE0E92211
:100C300080910A02877001F1DD23F1F08C2F807F13
:100C4000803469F080E28F0D8830B0F08C2F807E88
:100C5000803229F4F1E0FF1578F4EE2069F08091FC
:100C6000AD0282FF09C082E00E94AD1080910A02AD
:100C70008770CC24C3948111C12CBC2EB2948FE018
:100C8000B8228B2D90E08C30910508F0CCC1FC018E
:100C9000E158FF4F0C94E91F8C2F807FCF70882381
:100CA00011F0C295C07FDD23B9F0CC2309F4A9C1AE
:100CB00080E28F0D883010F0D11006C0909135027F
:100CC000C92BC093350205C090910C02C92BC0936B
:100CD0000C020E94581095C18F2D0E94201ACC231F
:100CE00009F4A1C180E28F0D883088F1DD2079F10F
:100CF000C09590910C02C923C0930C022BC08C2F7D
:100D0000807FCF70803211F0C295C07F8F2DDD20A3
:100D100029F021E0D21609F44DC056C08091AD02F1
:100D200082FD1BC0DD2369F0CC2339F090913502A0
:100D3000C92BC09335020E94581080E00E944C1AC3
:100D400072C180E00E94201ACC2309F46CC18C2F60
:100D50000E9451100E94581066C1DD2389F0EE20D8
:100D600009F43CC031E0E3125EC190910B028C2F7C
:100D70008923C81709F457C1C92BC0930B0253C16B
:100D8000E11051C18C2F0E94411980910B029C2FC0
:100D9000982329F09C2F9095892380930B02209112
:100DA00093018C2F822309F43EC1C0952C232093FC
:100DB000930139C1DD2329F081E08E1508F433C198
:100DC0000DC0E11030C110C0DD2361F0EE2031F024
:100DD000F801868180FF15C18F7086838C2F0E9459
:100DE000481921C1E11011C18C2F0E9441191BC16A
:100DF0008C2F86958695837019F0813061F013C130
:100E0000DD2321F08F2D9C2F937002C080E090E0B5
:100E10000E94091D0FC1DD2321F08F2D9C2F93709F
:100E200002C080E090E00E94E41C04C16D2F8F2D71
:100E30000E945219FFC08C2F8370A9F5D111F7C001
:100E40004F2D429546954770440F440F8F2D8F705C
:100E500090E09C01042E01C0220F0A94EAF7F4FEF0
:100E600008C08FE090E001C0880F4A95EAF78095AE
:100E700001C080E0C695C695C370C23069F088F4A1
:100E80009091C401C13019F0822B892302C0922BAA
:100E9000892B0E94E718CBC0822B9091C40189272F
:100EA000F8CF822BF6CFDD2319F08C2F817001C093
:100EB0008695882309F4BBC04F2D4295469547700F
:100EC000440F440F8F2D8F7090E09C01042E01C0C1
:100ED000220F0A94EAF7F4FE08C08FE090E001C008
:100EE000880F4A95EAF7809501C080E0C695C695BF
:100EF000C370C23059F078F49091C501C13019F037
:100F0000822B892309C0922B892B06C0822B9091BA
:100F1000C501892701C0822B0E94CB1888C0CF70E1
:100F2000DD2339F08C2F0E94DD188F2D0E94481987
:100F30007EC08F2D0E9441198C2F0E94D21877C03D
:100F40008F2D92EFD91669F19D1538F0E0EFDE167E
:100F500059F0F1EFDF1601F150C023EFD21641F145
:100F600034EFD316A9F049C0DD2369F0E1105BC06E
:100F7000CF7181E090E001C0880FCA95EAF79091A7
:100F8000C50189271FC081E08E1508F44CC0F0CF41
:100F90008091AD0282FD19C0DD2329F08C2F8F7165
:100FA0001FC0DD23D9F38C2F8F710E94D2183BC054
:100FB000DD2339F0CF7181E001C0880FCA95EAF7CF
:100FC00001C080E00E94CB182EC0DD2361F08C2F81
:100FD0008F7198E0899F90011124236020930A0269
:100FE0000E94DD1820C081E00E94AD10E1E0EE1506
:100FF000D0F482E00E94AD1016C0DD2321F0EE2077
:1010000069F28F2D9BCEEE2071F2893349F4FFEF08
:1010100027EE33E0F15020403040E1F700C00000FF
:101020008F2D0E94201A88EF8B0D843018F40E94B7
:101030002E1D16C0CC20A1F080910A0280FD10C0A8
:10104000F80115828695869586950E94DD18C8015F
:1010500020DC80910A028695869586950E94D2189A
:1010600060E0C801F2DA0CC080919201811104C0E5
:1010700089E20E947F1C4FCD85E3FBCF85E349CDFC
:10108000CDB7DEB7E9E00C94841FA0E2B0E0EBE45A
:10109000F8E00C946E1F182F8091C6018823D9F0B8
:1010A0008091C401812BAADB90919101891799F05D
:1010B000809391018FE39CE90197F1F700C0000054
:1010C00085E08983809191018A838EEF8B83CE01A5
:1010D00001960E947613812FA096E3E00C948A1F5C
:1010E000A0E2B0E0E6E7F8E00C946F1F9FEF998371
:1010F0008A83CE0101960E947613A096E2E00C94BA
:101100008B1FA1E0B0E0E7E8F8E00C946D1F87309A
:10111000F8F420910C0130910D01232BD1F521E041
:1011200030E0A90102C0440F551F8A95E2F7CA01B9
:10113000809589830AE010E0AE014F5F5F4F62E166
:1011400080E40E94791E90930D0180930C0121C0D0
:1011500090E0FC01EA5DFE4F208121111AC0F89455
:10116000FC01E85EFE4F8081E82FE295EF70F0E031
:1011700031A1282F2F7081E090E001C0880F2A95BF
:10118000EAF7932F982B91A392A18095892382A3AC
:1011900078942196E4E00C94891F0F931F93CF93CA
:1011A0000DE211E0C7E0F80181918F01811102C0C9
:1011B0008C2F29DACF5FCE30B1F7CF911F910F91ED
:1011C0000895A1E0B0E0E7EEF8E00C946D1F082F61
:1011D0008730C8F480910C0190910D01892BD9F5CD
:1011E00019820AE010E021E030E0AE014F5F5F4F6E
:1011F00063E180E40E94BF1E90930D0180930C0177
:101200008981809529C07DDFA2E1B1E020E030E056
:1012100010E051E04D91E42FE295EF70F0E080A1F5
:1012200090E04F7002C0959587954A95E2F780FD52
:1012300007C0852F022E01C0880F0A94EAF701C06B
:1012400080E0182B2F5F3F4F2630310519F7802F94
:10125000DAD9812F01C080E02196E4E00C94891F47
:10126000CF93DF93A2E1B1E048E151E061E070E0AB
:10127000F8948D91E82FE295EF70F0E021A18F7046
:10128000EB0102C0CC0FDD1F8A95E2F7CE019C2F47
:101290009095922391A392A1892B82A378944A17C7
:1012A0005B0731F7DF91CF910895A2E0B0E0EBE565
:1012B000F9E00C946D1F80E290E090930D01809313
:1012C0000C018091900181110EC00E94021E81E0EC
:1012D000809390012FEF83ED90E321508040904068
:1012E000E1F700C0000019828FE38A830AE010E072
:1012F00022E030E0AE014F5F5F4F60E080E40E948B
:10130000791E90930D0180930C01892B69F422E0E2
:1013100030E0AE014F5F5F4F6CE080E40E94791EC9
:1013200090930D0180930C0180910C012296E4E0D2
:101330000C94891FA6E6B0E0E0EAF9E00C94601F87
:1013400085B7806885BF85B7806885BF84B7877F8C
:1013500084BF0FB6F894A89580916000886180934F
:101360006000109260000FBE90E080E80FB6F89425
:1013700080936100909361000FBE81E08093110122
:101380008CEE9DE090938F0180938E010E949816C1
:101390000E94B7168091E20084608093E200789406
:1013A000809147028823A1F01091E9001F7090916D
:1013B000EC00892F817090FD80E8182B1092E900D5
:1013C0008091E80083FD0E947B131F701093E90059
:1013D00082E084BD93E095BD9AEF97BD80936E0047
:1013E00064DF90E090930D0180930C01D6DE38DF2E
:1013F000E4E9F1E0A6EAB1E011921D9221E0E23ABF
:10140000F207D1F780E090E00E94A31F833E9E4F39
:10141000B9F163EE7EEF80E090E00E94C21F60E0D1
:1014200082E090E00E94A81F81E08093C40161E007
:1014300083E090E00E94A81F60E074E184E090E007
:101440000E94C21F1092A2011092A3011092A40147
:101450001092A50184E08093A2014091A2015091D5
:10146000A3016091A4017091A5018FE090E00E941A
:10147000BA1F40E050E0BA0183E190E00E94BA1F39
:1014800082E090E00E94961F8093B40184E090E097
:101490000E94A31F9093AD028093AC020E94C512DC
:1014A000FFEF27EE83E0F15020408040E1F700C0DD
:1014B00000000E94C5128091A60180FF08C06FEF56
:1014C0007FEF80E090E00E94C21F0E94E91B83E052
:1014D00090E00E94961F0E94E7188091C501B7D93D
:1014E00089EA8093800089E08093810024982C9879
:1014F0003F98479A54985C9A55985D9A6E98769A58
:10150000569A8FE090E00E949E1F6093A201709314
:10151000A3018093A4019093A50167701FEF169F0C
:10152000B001112475956795759567957727709328
:1015300089006093880070938B0060938A00709399
:101540008D0060938C005E9875D970D96BD98FEF40
:1015500090E0909389008093880090938B00809313
:101560008A0090938D0080938C006ED99FEFE0E706
:10157000F2E09150E040F040E1F700C0000061D996
:101580002FEF80E792E0215080409040E1F700C0CB
:10159000000054D9EFEFF0E722E0E150F0402040A6
:1015A000E1F700C0000046D98FEF90E7E2E08150FC
:1015B0009040E040E1F700C0000038D9FFEF20E79D
:1015C00082E0F15020408040E1F700C000002AD9BD
:1015D0008091A2018770189FC0011124959587956D
:1015E000959587959927909389008093880090938B
:1015F0008B0080938A0090938D0080938C005E987E
:1016000019D914D90FD980E091E09093A902809361
:10161000A80248E1A42EB12C54EBC52E51E0D52EE2
:10162000662463947724739480914702853009F08F
:101630004AC010E400E192E1F92E80914702853022
:1016400009F03DC080914702843009F11092AE024A
:101650000FB6F894A895A09260000FBE109360009A
:1016600083B7817F846083BF83B7816083BF7894B1
:10167000889583B78E7F83BF0FB6F894A895809125
:101680006000886180936000109260000FBE0DDEE4
:1016900090E090930D0180930C017FDDE1DDE6EA9F
:1016A000F1E01192CE16DF06E1F76FD7E6EAF1E03E
:1016B000819181116DC2CE16DF06D1F7BECF0E9497
:1016C00014190E942E1D61D705EB11E023EC31E0C7
:1016D000A6EAB1E0F80191918D9189272E173F0775
:1016E00019F08823C1F304C0811102C0DBD752C0B6
:1016F00086EAE82E81E0F82E912CF70131907F01E7
:10170000F80140804324A9F1812C55245394842D61
:10171000852141F1A2968FAEA297A3969FAEA39783
:101720000E94411CA5969FAF8EAFA597A6966FAE5F
:10173000A69791E0832D852109F490E0A7969FAFAD
:10174000A797A2964FADA297A3965FADA397A49635
:101750006FADA497A5967FADA597A6968FADA697DA
:101760000E945C038394550CF6E08F12D0CFF801F1
:10177000308293940F5F1F4FFEE09F12BECF8FB752
:10178000F8944091AF025091B0026091B102709113
:10179000B2028FBF5090A102E090A2021091A3026A
:1017A000F090A4020091A5021092A2021092A3024E
:1017B0001092A4021092A502E11003C0112309F4B3
:1017C0004DC080909F029090A0020E94411C9C01FD
:1017D0002819390990919A02992309F4F4C1253105
:1017E0003105E0F19F3F19F09F5F90939A02EE2040
:1017F00061F00E94841D1E1414F491E001C09FEF5B
:10180000899F802D11248093A202112361F00E94F0
:10181000841D111614F09FEF01C091E0899F802D67
:1018200011248093A3028091A2028823B9F09090A2
:10183000A302992099F00E94A61D882319F0809395
:10184000A20202C07092A202892D0E94A61D8823C6
:1018500019F08093A30202C07092A302F11003C09A
:10186000002309F44DC080909D0290909E020E943A
:10187000411C9C012819390990919B02992309F474
:10188000A6C125313105E0F19F3F19F09F5F90938C
:101890009B02FF2061F00E94651D1F1414F491E06B
:1018A00001C09FEF899F802D11248093A402002303
:1018B00061F00E94651D101614F09FEF01C091E0C9
:1018C000899F802D11248093A5028091A4028823F2
:1018D000B9F09090A502992099F00E94A61D882346
:1018E00019F08093A40202C07092A402892D0E9474
:1018F000A61D882319F08093A50202C07092A5024C
:101900008091A10285111AC08091A202882311F052
:101910008E1114C08091A302882311F018130EC0F9
:101920008091A502882311F0081308C09091A402A9
:10193000992331F081E0F91204C002C081E001C0B6
:1019400080E080FD15C08091A20281110FC08091BE
:10195000A30281110BC08091A402811107C081E014
:101960009091A502911103C080E001C081E080FD4B
:101970000E943D1D5092A102E092A2021093A30288
:10198000F092A4020093A5020E942E1D9091C30123
:10199000891769F08093C3018FB7F8944091AF0223
:1019A0005091B0026091B1027091B2028FBF8091EC
:1019B0004702843009F038CE8093E9008091E80036
:1019C00082FF32CE8091E80085FF22C00E94F4178A
:1019D00081111CC000E210E07E0121E4E20EF11C46
:1019E00008C08091F100F70181937F010150110936
:1019F00069F08091E80085FDF4CF8091E8008B7755
:101A00008093E8000E94F417882399F391E001C0C5
:101A100090E08091E8008B778093E800992309F4A7
:101A200003CE22968FAD2297863009F494C020F51C
:101A3000823009F4F9CDD0F4882399F1813009F08E
:101A4000A4C08093C60184E089A31EEF1AA3CE012F
:101A500081964CD69091C5018091C401892B0E943A
:101A6000FE0395E099838A831B838BC0843031F118
:101A7000853009F470C089C0893009F46CC030F435
:101A80008730C9F1883009F466C07FC08A3009F414
:101A900064C08E3F09F079C0898394E09A838B8378
:101AA00070C019828DE0E4E3F1E0DE01129601904E
:101AB0000D928A95E1F78EEF8E8763C08091C60103
:101AC000882309F4B1CD23968FAD2397811106C0E9
:101AD00024968FAD24970E94D218A6CD81E090E085
:101AE00024960FAC249702C0880F991F0A94E2F73E
:101AF0000E94CB1899CD7092C80123968FAD239781
:101B00008230E1F030F5882319F0813061F021C096
:101B100024968FAD2497882319F00E94240484CD45
:101B20000E941A0481CD24968FAD2497882319F042
:101B30000E94210479CD0E94160476CD24968FADA3
:101B40002497882319F00E941E046ECD0E9412046F
:101B50006BCD85E01BC084E019C023968FAD239721
:101B600011E0811101C010E01093C801811106C07D
:101B70000E941A040E9416040E9412048BE08983BA
:101B80001A83CE010196B2D54FCD8FEFA9DA4CCD95
:101B900080914602882309F450CD09BDF9BC09B4EF
:101BA00000FEFDCF8091D8008F7D8093D80080917A
:101BB000E00082608093E0008091E00081FDFCCF36
:101BC0000E9414193ACD232B09F00ECE47CE2139AD
:101BD000314008F05BCE94CE80E008959091AC0245
:101BE00092FF10C041E0282F2471243009F040E01A
:101BF00031E0282F2871283009F030E0431711F028
:101C00002CE0822793FF10C041E0282F247124315B
:101C100009F040E031E0282F2871283109F030E048
:101C2000431711F02CE082273091AD0230FF10C035
:101C300051E0282F2171213009F050E041E0282F98
:101C40002871283009F040E0541711F029E082276C
:101C500031FF10C041E0282F2171213109F040E00F
:101C600031E0282F2871283109F030E0431711F0B6
:101C700029E0822794FD877E08958238910569F1D5
:101C8000B0F48133910509F475C048F489329105A7
:101C900009F467C08A32910509F471C0089585334B
:101CA000910509F459C089339105B9F00895833E2F
:101CB000910589F138F4803E9105D1F0823E91057D
:101CC00029F10895863E9105C9F1873E9105D9F124
:101CD000843E910509F06CC027C02091AC0220FD24
:101CE00057C021FD55C02091AD0223FD5BC0089572
:101CF0008091AC0280FD48C08091AD0280FF48C059
:101D00008091AC0284FD46C083EE51C08091AC024C
:101D100082FF3CC0F5CF8091AC0282FD37C080913C
:101D2000AD0280FD35C0ECCF8091AD0281FF36C0A1
:101D30008091AC0284FD2EC087EE39C08091AC0248
:101D400083FF2AC0F5CF8091AC0283FD25C080912E
:101D5000AD0281FD23C0ECCF8091AC0285FD22C095
:101D60001FC08091AC0285FD1BC08091AD0283FF36
:101D700019C00AC08091AC0286FD16C017C08091C0
:101D8000AC0286FD13C010C089E311C082EE0FC003
:101D900080EE0DC080E00BC086EE09C084EE07C067
:101DA00085E305C089E203C08AE201C081E390E0D7
:101DB00008959091350280910C02892B90910B022D
:101DC0009923E1F0892B90911001913041F4909189
:101DD000AC0297FF04C09EE12CE732E003C096E01E
:101DE00024E732E0F90120E0915028F031913323CB
:101DF000D9F32F5FF9CF211110920B020895209192
:101E000009029091D00157E02917A9F030E0529FC4
:101E1000F001539FF00D1124EF52FE4F71817613A4
:101E200006C07081781303C07581741306C02F5FDC
:101E30003F4F2770E9CF80E0089581E008957E301C
:101E4000B0F46630A0F48430A0F494E5899FF001EA
:101E5000112486E0789FE00DF11D1124E60FF11D9D
:101E6000EE0FFF1FE65DFE4F85919491089580E08F
:101E700001C081E090E008951F93CF93DF93FDDED2
:101E8000EC01C11580E5D807E8F5C11590E4D90744
:101E900008F0A6C0C03ED10530F5CD3CD10508F014
:101EA00094C0C83AD10578F4C53AD10508F083C08A
:101EB000C130D10509F47CC008F4EBC0C430D105B1
:101EC00008F0EAC0E6C0C33CD10508F0E2C0C85A39
:101ED000D0E0CC0FDD1FCC5BDE4F0990D881C02D48
:101EE000CE019464DAC0C11580E2D80708F0C6C0FC
:101EF000C11591E0D90708F06BC0C83ED10508F4C0
:101F0000CBC0C7C0C03682E5D80728F5C03492E5FB
:101F1000D90708F076C0C03282E5D80708F069C05A
:101F2000C11592E5D90708F47EC04C2F4695469519
:101F300080E2489FA0011124C37021E030E0C90174
:101F400002C0880F991FCA95E2F7EA01C82BD92B66
:101F5000CE019D68A2C0C03A82E5D807B8F48C2FA4
:101F60008F71C03892E5D90708F077C086958695BD
:101F700090E2899F90011124C37081E090E002C03B
:101F8000880F991FCA95E2F79A6864C0C03C82E541
:101F9000D80708F469C0C03E92E5D90708F079C0B7
:101FA000CF71DD27DC2FCC27CE01806F906A75C002
:101FB00081E090E072C0C55AD0E0CF5BDE4F8881EF
:101FC000C82FD0E0CE01906468C0CE01906565C096
:101FD0008D2F04DE182FCE0199274FDE1F7157C0B9
:101FE000CE0199274ADECC27DF70D06A8C2B9D2B3F
:101FF00054C0CF71D0E0DC2FCC27CE01816F906A26
:102000004CC08C2F8F718695869590E2899F9001A8
:102010001124C37081E090E002C0880F991FCA9517
:10202000E2F79C6817C08C2F8F71D8DD95E0D695AC
:10203000C7959A95E1F7CF70D0E0DC2FCC27282FF9
:1020400030E084FF05C084E0220F331F8A95E1F75A
:10205000D069CE01822B932B20C090E0D82FCC27C3
:10206000CE01846F906A19C08C2F8F71B7DD8F718C
:1020700090E0D82FCC27CE0190620FC08D2F8F71AA
:10208000ADDD182FCE019927F8DD1F719062912BDD
:1020900004C080E090E001C0CE01DF91CF911F919C
:1020A0000895809590913502892380933502089593
:1020B00080911001813061F58091AC0287FF28C0CA
:1020C00078DE80937B0240E250E06DE072E08AE7C8
:1020D00092E00E94EF1F892B09F43EC080E2EAE7FC
:1020E000F2E0ADE0B2E001900D928A95E1F7E09167
:1020F000A802F091A902309779F10480F581E02DD2
:10210000309751F186E080937A028AE792E023C00B
:1021100050DE8093720248E050E06DE272E082E7A8
:1021200092E00E94EF1F892BB9F088E0E2E7F2E02D
:10213000ADE2B2E001900D928A95E1F7E091A8023C
:10214000F091A902309741F00280F381E02D3097A1
:1021500019F082E792E00995089590910A0280951E
:10216000892380930A02282F277069F4981759F061
:102170009091AD0292FF07C08695869586950E9444
:10218000D21810920A0208959091AD0292FB222774
:1021900020F9281771F080FB92F99093AD026091BD
:1021A000AC027091AD0284E090E00E94C21F82E018
:1021B000D4CF0895809109029091D001891719F028
:1021C0008F5F8770FBCF0895CF93DF938091CF010E
:1021D00082958F7009F04DC08091CE01882309F45B
:1021E00048C0809109024091D0015091CA0160918C
:1021F000C901C091CB01D091CC0177E08417C9F11E
:1022000090E0789FF001799FF00D1124DF01AF522B
:10221000BE4F14962C911497222341F111962C91C4
:102220001197251323C02C91261320C015962C91AD
:10223000159721111BC012962D913C9113972C1BC1
:102240003D0B2C38310590F48091CF018F70806167
:102250008093CF01E952FE4F80818F70806180832F
:1022600089EC91E00E944904A5DF03C001968770C4
:10227000C5CFDF91CF910895A4E1B0E0E2E4F1E1B0
:102280000C94651F8C0186E0F801DE011F96019019
:102290000D928A95E1F7D80114968C9114971596B2
:1022A000EC9099EC892E91E0992E9091CD019111AD
:1022B0001DC0882309F462C1EE2009F43EC0C801A4
:1022C00091D7F82E8823C9F187E0F801D401019055
:1022D0000D928A95E1F78091CD01813029F48091AA
:1022E000C9019091CA01E2D66FDF4AC1F801D080DE
:1022F000C180A280B380F090CE012091CB013091BB
:10230000CC01FF2009F4EAC0A501421B530B4C3855
:10231000510508F0A1C0882309F432C18091CF0192
:10232000282F207F9091CA01222359F09C1509F48F
:1023300065C0C80157D7811169C0C8010E9449040E
:102340001DC19C1114C09091C9019D1110C0E110D4
:102350000EC08F7080618093CF0189EC91E00E9464
:1023600049048091CF01D80116968C9305C1E110E4
:1023700037C040E06C2D8D2D42DD40E06C2D8D2D61
:102380003EDDE82E8111F8C0DF86C88A8F859889E6
:102390008DD6292F22952F70243020F49F70223063
:1023A00028F009C02A50223080F014C0992349F047
:1023B000811107C013C0992321F0F8019681907F05
:1023C00069F0805E883030F409C0803F38F0815F6A
:1023D000833020F0C8010E944904EF2CFE2CD0C0AD
:1023E0008091CF0181608093CF0189EC91E00E94C0
:1023F0004904E9ECF1E087E0DF0139C09091C901BF
:102400009D1197CFE11095CFF80196C0EE2009F409
:1024100094CF2091CF01822F82958F7090E0029708
:102420008CF08091C9019091CA0199878887BB86F9
:10243000AA868091CD018C871D862E87CE010896B5
:102440000E94490487E0F801A9ECB1E001900D92E7
:102450008A95E1F7B9DE92C09091CF01292F207FB4
:1024600051F489EC91E00E94490487E0D4011D9267
:102470008A95E9F781C0882309F482C08091CA0156
:102480008C110CC08091C9018D1108C0E11006C0EB
:10249000F8019683C8010E94490468C0C801A2D609
:1024A000882309F44ACFEE2009F447CF2091CF01C9
:1024B000822F82958F7090E0029724F28091C9015B
:1024C0009091CA019A838983BC82AB828091CD01AD
:1024D0008D831E822F83CE010196B2CFA21AB30A3A
:1024E000BCE8AB16B10408F041C0882309F446C02B
:1024F000FE2CEE2009F421CF8091CA018C1129C055
:102500008091C9018D1125C09091CF0190FD18C017
:10251000892F82958F70282F30E02115310581F0A9
:10252000F80196832F30310541F08F5F982F9295F7
:10253000907F86818F70892B8683C8010E94490411
:1025400087E0F801A9ECB1E001900D928A95E1F7DE
:1025500017C0C80147D6811175CF8091CF01816026
:102560008093CF01C8010E9449040AC087E0D401CA
:102570001D928A95E9F704C0F12C02C0FF24F39460
:102580008F2D6496ECE00C94811FEF92FF920F93D5
:102590001F93CF93DF9380910C0190910D01892BB4
:1025A000D9F0809138028F5F80933802811114C076
:1025B0000E94550990E090930D0180930C01892BA6
:1025C00059F42FEF83EC99E0215080409040E1F7DF
:1025D00000C000000E94DE1B04E911E0C0E0D0E072
:1025E00087E0E82EED0E8D2F0E9481088E2D0E942F
:1025F00081088D2F0E94E1088F73F801908189175F
:1026000021F08083FF24F39401C0F12C8E2D0E94D1
:10261000E1088F73F8019781891719F0878381E0AA
:1026200001C080E0F82ACF290E94CD08DF5F0F5F4C
:102630001F4FD730A9F6CC2359F081E080933B029D
:102640000E94411C90933A0280933902C0E024C05A
:1026500080913B02882301F10091390210913A02E6
:102660000E94411C801B910B8897B0F04EE050E017
:1026700064E971E086EA91E00E94EF1F892B51F036
:102680008EE0E4E9F1E0A6EAB1E001900D928A95CE
:10269000E1F7C1E010923B028C2FCDB7DEB7E6E048
:1026A0000C94871FA6E0B0E0E8E5F3E10C946D1F01
:1026B0000E94411C8C0180913602909137020817CC
:1026C000190781F019821A820E94411C682F4981E2
:1026D0005A81792F80E090E00E945C0310933702CA
:1026E000009336022696E4E00C94891F40E250E005
:1026F000BC0183E0F5C7AAE2B0E0E1E8F3E10C94A5
:102700006E1FE9E4F2E08091F100819342E0E1354F
:10271000F407C9F780914A02833009F462C030F4AB
:10272000813071F0823009F49EC0B4C08A3009F45F
:102730008BC08B3009F46DC0893009F0ABC01FC06D
:1027400080914902813A09F0A5C08091E800877F15
:102750008093E80080914D0290914E02892B21F4E4
:1027600068E08DE392E003C060E080E090E070E01C
:1027700059D78091E8008B778093E8008BC08091D7
:102780004902813209F086C080914D0290914E023B
:10279000009719F0039709F07DC08091E800877FCA
:1027A0008093E8008091E80082FD05C08091470297
:1027B0008111F8CF6FC02091F3008091F20090E07A
:1027C000922B029731F48091F100813011F0863024
:1027D00021F48091F10080930F018091E8008B77C4
:1027E00056C080914902813A09F054C080914D024F
:1027F00090914E02892B09F04DC08091E800877FAF
:102800008093E8008091E80080FFFCCF8091100168
:1028100039C080914902813209F03CC080914D025B
:1028200090914E02892BB1F58091E800877F8093CB
:10283000E800A4D681E090914B02911101C080E0A4
:1028400080931001F1D426C080914902813211F5A4
:102850008091E800877F8093E80090D680914C02B9
:1028600080930E0117C080914902813A99F48091BA
:10287000E800877F8093E8008091E80080FFFCCF2C
:1028800080910E018093F1008091E8008E77809313
:10289000E80074D68091E80083FFEFC1809149027F
:1028A00090914A02492F50E04A30510508F0E5C1A5
:1028B000FA01E557FF4F0C94E91F803821F0823868
:1028C00009F0DBC108C0809145029091460299232E
:1028D00089F082600FC080914D028F70873008F0C0
:1028E000CCC18093E9008091EB0085FB882780F9BB
:1028F0001092E9009091E800977F9093E800809310
:10290000F1001092F1007AC1282F2D7F09F0B5C196
:10291000882319F0823061F0B0C180914B02813080
:1029200009F0ABC1933009F080E0809346022EC0DD
:1029300080914B0281112AC080914D028F702FEF40
:10294000280F263008F099C18093E9002091EB0010
:1029500020FF1CC0933021F48091EB00806214C0F2
:102960009091EB0090619093EB0021E030E0A901A1
:1029700002C0440F551F8A95E2F74093EA00109277
:10298000EA008091EB0088608093EB001092E900F0
:102990008091E800877F8093E800F0D56EC18111B7
:1029A0006CC110914B021F778091E3008078812BDE
:1029B0008093E3008091E800877F8093E800DED574
:1029C0008091E80080FFFCCF8091E30080688093D5
:1029D000E300111102C082E001C083E0809347024E
:1029E0004CC18058823008F048C120914B02309190
:1029F0004C022C3D53E0350771F583E08A838AE26F
:102A000089834FB7F894DE01139620E03EE051E24F
:102A1000E32FF0E050935700E49120FF03C0E295CC
:102A2000EF703F5FEF708E2F90E0EA3010F0C796A6
:102A300001C0C0968D939D932F5F243149F74FBFFE
:102A40008091E800877F8093E8006AE270E0CE0121
:102A50000196E8D5C1C080914D0290914E02432F5E
:102A6000552743305105B1F068F44130510509F460
:102A700013C14230510509F000C184E790E0E4EE53
:102A8000F4E057C04132510589F14232510509F451
:102A90003CC0F3C0C901992781309105B9F070F0AD
:102AA00082309105D9F0039709F0E7C0EAE6F5E036
:102AB000E4918E2F90E0EAE6F5E038C0E8ECF5E02E
:102AC000E4918E2F90E0E8ECF5E030C0EEE9F5E01F
:102AD000E4918E2F90E0EEE9F5E028C0E6E8F5E01D
:102AE000E4918E2F90E0E6E8F5E020C08430910577
:102AF00008F0C3C0880F991FFC01EA57FE4F0190F0
:102B0000F081E02D89E090E014C08430910508F058
:102B1000B4C0FC01EE0FFF1FE258FE4F0190F081A0
:102B2000E02DDC01A658BE4F8C9190E0009709F48F
:102B3000A4C02091E800277F2093E80020914F0255
:102B4000309150028217930708F49C0140E0211550
:102B5000310589F180914702882309F43DC0853011
:102B6000D9F18091E80083FD37C08091E80082FDB3
:102B70002FC08091E80080FFEACF4091F300809160
:102B8000F20090E0942B2115310559F08830910521
:102B900040F444914093F10031962150310901965F
:102BA000F2CF41E0089709F040E08091E8008E778D
:102BB0008093E800CCCF4111CDCF0AC0809147026D
:102BC000882351F0853041F08091E80083FD04C0F6
:102BD0008091E80082FFF2CF8091E8008B778093AC
:102BE000E8004BC0803809F048C08091E800877F3A
:102BF0008093E800809148028093F1008091E80082
:102C00008E77C9CE811139C080914B0290914C02D0
:102C10009927029794F58091E800877F8093E800D8
:102C200010914B0210934802A9D4111106C0809153
:102C3000E30087FD02C081E001C084E08093470289
:102C400042E061EC81E0B9D442E161EC82E0B5D4CC
:102C500042E261EC85E0B1D442E261EC83E0ADD4C4
:102C600042E260EC84E0A9D480914702843011F004
:102C700081E001C082E0809311018091E80083FF30
:102C800010C08091E800877F8093E8008091EB007E
:102C900080628093EB0005C082E190E0E8E5F5E01A
:102CA00048CFAA96E3E00C948A1F1F920F920FB6AA
:102CB0000F9211242F933F934F935F936F937F93C2
:102CC0008F939F93AF93BF93CF93DF93EF93FF9334
:102CD000C091E900CF708091EC00D82FD17080FDB9
:102CE000D0E81092E9008091F000877F8093F00097
:102CF000789401DD1092E9008091F0008860809363
:102D0000F000CD2BCF70C093E900FF91EF91DF91E0
:102D1000CF91BF91AF919F918F917F916F915F9173
:102D20004F913F912F910F900FBE0F901F901895CC
:102D3000E8EDF0E080818E7F80831092E2001092B7
:102D4000DA001092E100A0EEB0E08C9181608C93EB
:102D500080818F77808319BCA7EDB0E08C918E7F46
:102D60008C9380818F7E808310923C020895A0E036
:102D7000B0E0EDEBF6E10C94691FC8EDD0E088817E
:102D80008F7E8883E7EDF0E080818160808384E03E
:102D900082BF81E080933C0288818E7F888302EE2F
:102DA00010E0F80110821092DA0081EEC82ED12CCA
:102DB000F601108288818F77888388818068888374
:102DC00088818F7D888319BC109247021092480237
:102DD000109246021092450290EEE92EF12CF70176
:102DE00080818B7F808388818160888342E060E07E
:102DF00080E0E3D3F60180818E7F8083F8018081BB
:102E000081608083808188608083F70180818E7FEC
:102E10008083888180618883CDB7DEB7E8E00C9439
:102E2000851F1F920F920FB60F9211242F933F937D
:102E30004F935F936F937F938F939F93AF93BF93C2
:102E4000EF93FF938091E10082FF09C08091E2003F
:102E500082FF05C08091E1008B7F8093E10080912B
:102E6000DA0080FF28C08091D80080FF24C08091C4
:102E7000DA008E7F8093DA008091D90080FF16C03F
:102E800080E189BD82E189BD09B400FEFDCF81E00A
:102E90008093470280913C0281110DC049DF67DFBA
:102EA0008091E20084608093E20005C019BC10921A
:102EB000470210923C028091E10080FF1AC080918D
:102EC000E20080FF16C08091E2008E7F8093E200D6
:102ED0008091E20080618093E2008091D80080625E
:102EE0008093D80019BC85E08093470283E08093EB
:102EF00011018091E10084FF37C08091E20084FFDE
:102F000033C080E189BD82E189BD09B400FEFDCFF7
:102F10008091D8008F7D8093D8008091E1008F7ED2
:102F20008093E1008091E2008F7E8093E2008091A7
:102F3000E20081608093E20080914802882311F0D2
:102F400084E007C08091E30087FD02C081E001C0FA
:102F500083E08093470280914702843011F081E042
:102F600001C082E0809311018091E10083FF2BC0BA
:102F70008091E20083FF27C08091E100877F8093EA
:102F8000E10082E080934702109248028091E100C4
:102F90008E7F8093E1008091E2008E7F8093E2003B
:102FA0008091E20080618093E20042E060E080E096
:102FB00004D38091F00088608093F00081E08093DA
:102FC000110180931001FF91EF91BF91AF919F91FB
:102FD0008F917F916F915F914F913F912F910F90C2
:102FE0000FBE0F901F9018952091E4003091E500DE
:102FF00095E64091EC00842F817040FF23C08091C2
:10300000E80080FD1DC080914702882399F085303B
:1030100099F08091EB0085FD11C04091E400509142
:10302000E5002417350729F3915011F09A01E1CFFB
:1030300084E0089582E0089583E0089581E0089592
:1030400080E008954091E80042FFDDCF0895CF92DF
:10305000DF92FF920F931F93CF93DF936C01009148
:10306000C5018091C401082BC7E0D0E010E0C80181
:103070000C2E02C0959587950A94E2F780FD04C056
:103080002197A8F7F12C09C0FC2EB6018C2F0E94C5
:103090001F0F0E943C0F019799F38F2DDF91CF9165
:1030A0001F910F91FF90DF90CF900895CF93DF9302
:1030B000EC01CDDFBE010E941F0F0E943C0FDF918B
:1030C000CF910895292F9E3078F5863068F590E0ED
:1030D00036E0239F800D911D1124682F677023E037
:1030E000969587952A95E1F7FC01EE0FFF1FE80FF3
:1030F000F91FEF5AFD4F40E050E080E0219130E0B1
:10310000062E02C0369527950A94E2F721703327E0
:10311000042E01C0220F0A94EAF7822B4F5F5F4F03
:103120004330510559F7089580E00895292F9E30C6
:1031300088F5863078F590E036E0239F800D911D6C
:103140001124282F277051E001C0550F2A95EAF766
:1031500023E0969587952A95E1F7FC01EE0FFF1F76
:10316000E80FF91FEF5AFD4F20E030E070E040819A
:10317000CB01022E02C0969587950A94E2F78170E2
:10318000819584278523842781932F5F3F4F2330A8
:10319000310569F708950E9445080E94270480932D
:1031A000C501089521E030E001C0220F8A95EAF7B9
:1031B00020958091C5018223EECF21E030E001C04F
:1031C000220F8A95EAF78091C501822BE4CFCF9335
:1031D000C82F8091C5018C2B0E944508C093C40163
:1031E000CF910895FC0124812223D1F08081918127
:1031F0005DDF92959F70963079F010F4925001C087
:103200009A50923068F4803F69F018F4883E40F498
:1032100009C0843F29F406C0883E20F0813F11F0A8
:1032200080E0089581E008951092350280911001A8
:10323000813041F48091AC0287FF04C08EE1ECE75D
:10324000F2E003C086E0E4E7F2E0DF011D928A9538
:10325000E9F780E090E0DDD380E090E0B5D3109214
:103260000C020E945810E1EAF2E085E0DF011D92B5
:103270008A95E9F710929A0210929B0210929C0292
:10328000FCC3882321F00E9451100C94581008951B
:10329000882339F090913502892B809335020C9464
:1032A00058100895662309F454C08D3C19F42CD4A9
:1032B000819503C08E3C21F427D48093A302BFC024
:1032C0008F3C19F421D4819503C0803D21F41CD496
:1032D0008093A202B4C0893D11F4F7D304C08A3DA3
:1032E00029F4F3D381958093A402A9C08B3D19F4EE
:1032F000ECD3819503C08C3D21F4E7D38093A502E4
:103300009EC09FE2980F983078F421E030E0A90148
:1033100002C0440F551F9A95E2F7CA019091A1028D
:10332000892B8093A1028BC08D3D21F480919C025A
:1033300081600CC08E3D21F480919C02826006C0A9
:103340008F3D09F07CC080919C02846080939C0238
:1033500076C08D3C39F49091A30297FF35C010924E
:10336000A30259C08E3C29F49091A3021916BCF314
:103370002BC09091A2028F3C29F497FF25C0109298
:10338000A20249C0803D19F41916CCF31DC09091DA
:10339000A402893D29F41916BCF41092A4023BC082
:1033A0008A3D19F497FF10C0F8CF8B3D39F4909106
:1033B000A50297FF09C01092A5022DC08C3D21F4F3
:1033C0009091A5021916BCF39FE2980F983080F4F3
:1033D00021E030E0A90102C0440F551F9A95E2F7A1
:1033E000CA0180959091A10289238093A10213C004
:1033F0008D3D21F480919C028E7F0BC08E3D21F487
:1034000080919C028D7F05C08F3D29F480919C02A4
:103410008B7F80939C028091A202811106C08091D3
:10342000A302811102C010929A028091A40281111C
:1034300006C08091A502811102C010929B021DC39B
:10344000882349F19CEF980F913A10F458D20DC09F
:1034500090E2980F983058F4877091E001C0990F6E
:103460008A95EAF7892F0E9451100C9458109BE519
:10347000980F933018F480E090E0CBC298E5980F55
:103480009B3118F480E090E09FC293E3980F933152
:1034900010F460E007CF0895CF93882309F469C042
:1034A000C82F8CEF8C0F813A90F5809110018130FC
:1034B000E1F48091AC0287FF18C0EC2FE695E69509
:1034C000E695F0E0E658FD4F8281282F30E04C2F42
:1034D000477081E090E002C0880F991F4A95E2F79B
:1034E00082239323892B61F40FC0E4E7F2E08AE79B
:1034F00092E02191C21721F08E179F07D1F704C0E7
:103500008C2FFDD10E9458108C2F27D210C080E242
:103510008C0F883078F4C77081E090E001C0880F8C
:10352000CA95EAF790913502892B809335020E9463
:1035300058101FC0EBE5EC0FE33038F4F0E0EF5B20
:10354000FE4F808190E065D214C0E8E5EC0FEB31CE
:1035500048F4F0E0EE0FFF1FEC5BFE4F808191819D
:1035600033D207C083E38C0F833118F461E08C2FD2
:1035700099DECF91089580910F01089580914902BD
:1035800087FF11C08091E80082FD05C0809147024D
:103590008111F8CF11C08091E8008B770BC080912A
:1035A0004702882349F08091E80080FFF8CF80919E
:1035B000E8008E778093E8000895982F973068F59B
:1035C0009093E900981739F07091EC002091ED008C
:1035D0005091F00003C0242F762F50E021FD02C04F
:1035E0009F5FECCF3091EB003E7F3093EB0030914A
:1035F000ED003D7F3093ED003091EB003160309372
:10360000EB007093EC002093ED005093F0002091BC
:10361000EE0027FDE5CF80E008958F708093E900EC
:1036200081E0089520914F0230915002261737070C
:1036300048F06115710539F42091E8002E77209348
:10364000E80001C0B901FC0120E06115710579F1C4
:10365000809147028823F1F18530F1F18091E800F3
:1036600083FD3CC08091E80082FD2EC08091E8007F
:1036700080FFEBCF2091F3008091F20090E0922B3D
:103680006115710551F08830910538F4219120932E
:10369000F100615071090196F3CF21E0089709F01C
:1036A00020E08091E8008E778093E800CECF211152
:1036B000CFCF0AC080914702882361F0853061F046
:1036C0008091E80083FD0AC08091E80082FFF2CF7C
:1036D00080E0089582E0089583E0089581E00895F0
:1036E0000F931F93CF93DF938B01EA0190914702D1
:1036F0009430A1F58F708093E9008FEF9091E800EE
:10370000815095FD06C095ED9A95F1F70000811165
:10371000F5CF8091E80085FF21C066DC811115C0DE
:10372000209789F08091E80085FD06C08091E8002F
:103730008E778093E800F1CFF80181918F0180931B
:10374000F1002197EDCF90E001C0982F8091E80023
:103750008E778093E80081E0911101C080E0DF91D5
:10376000CF911F910F91089543E050E0BC0185E097
:10377000B7CF45E050E0BC0182E0B2CF40E250E07C
:10378000BC0185E0ADCFCF93DF93EC0148E050E082
:10379000BC0181E0A5DF88E0FE01ADE3B2E001906D
:1037A0000D928A95E1F7DF91CF910895603229F467
:1037B000BC0140E250E083E093CF08959AE088E1B5
:1037C0000FB6F894A895809360000FBE90936000A8
:1037D000FFCFF89481E08093E00080E28093D800EE
:1037E000E9ECF0E010828FE19EE40197F1F700C070
:1037F00000001DBA109268001CBC10BE1FBA1092C7
:103800007A0010926E0010926F0010927100109268
:1038100072001082ECEBF0E0108214B817B81AB8FE
:103820001DB810BA108215B818B81BB81EB811BA56
:103830000C94003F089578941F920F920FB60F9248
:1038400011248F939F93AF93BF938091AF02909178
:10385000B002A091B102B091B2020196A11DB11DBA
:103860008093AF029093B002A093B102B093B202E2
:10387000BF91AF919F918F910F900FBE0F901F90AE
:1038800018952FB7F8948091AF029091B002A09153
:10389000B102B091B2022FBF08951F920F920FB6DE
:1038A0000F9211248F939F93AF93BF938091AE0299
:1038B000811113C08091AF029091B002A091B1022A
:1038C000B091B2024196A11DB11D8093AF029093B9
:1038D000B002A093B102B093B202BF91AF919F9199
:1038E0008F910F900FBE0F901F901895CF93DF937D
:1038F000EC01C7DF8C1B9D0BDF91CF910895909158
:103900001001913021F49091AC0297FD03C0E2E7E1
:10391000F2E01DC0E82FE695E695E695EE31E0F47D
:10392000F0E0E658FD4F877021E030E0A90102C0C9
:10393000440F551F8A95E2F7CA0180959281892329
:1039400082830895319652E0E837F50729F0928195
:103950008913F8CF1282F6CF08959091100191301B
:10396000D1F49091AC0297FF16C0E82FE695E6954A
:10397000E695EE3140F5F0E0E658FD4F877021E026
:1039800030E0A90102C0440F551F8A95E2F7CA0131
:103990009281892B16C0A4E7B2E0EFEF90E02D9161
:1039A000821789F0EF3F19F4211101C0E92F9F5FC1
:1039B0009630A9F7EF3F39F00E2E000CFF0BEE58B2
:1039C000FD4F828308950895A3E0B0E0E9EEFCE1A5
:1039D00086C22091AA023091AB0228173907B1F0B4
:1039E0009093AB028093AA02E091A802F091A90201
:1039F000309761F00084F185E02D309739F024E0B4
:103A000029839B838A83CE01019609952396E2E060
:103A100082C2A3E0B0E0EEE0FDE161C22091A60227
:103A20003091A70228173907B1F09093A70280932D
:103A3000A602E091A802F091A902309761F00084FB
:103A4000F185E02D309739F023E029839B838A8329
:103A5000CE01019609952396E2E05DC2E091A802AD
:103A6000F091A902309739F00190F081E02D309764
:103A700011F00995089580E0089503DF2091A202D6
:103A8000211104C02091A302222321F09093A002CF
:103A900080939F022091A402211104C02091A502CD
:103AA000222321F090939E0280939D02E091A80230
:103AB000F091A902309741F00680F781E02D309710
:103AC00019F081EA92E00995089580919C0280FDA9
:103AD00017C081FD13C082FD15C080919B02882311
:103AE00079F08C3378F427E0829FC00111246CE3D5
:103AF00070E05CD2862F672B19F005C083E0089533
:103B000081E0089587E0089580919C0280FD16C0B1
:103B100081FD16C082FD18C080919A02882391F021
:103B20008C3390F428E3829FC00111246CE370E091
:103B30003DD2862F672B49F481E008958EE00895E9
:103B40008CE1089588E0089588E30895282F35EBE7
:103B50002303C001112497FF03C08058910902C0BC
:103B600080589F4F892F0895EF92FF920F931F93D4
:103B7000CF93DF93182FEB011092BC0084EA80935F
:103B8000BC007FDE7C018091BC0087FD0CC0CF3F74
:103B90008FEFD807C1F3C701A9DEC817D90798F777
:103BA0008EEF9FEF2BC08091B900887F883041F065
:103BB0008091B900887F803119F08FEF9FEF1EC090
:103BC0001093BB0084E88093BC005BDE8C01809185
:103BD000BC0087FD0AC0CF3F8FEFD807C1F3C801F3
:103BE00085DEC817D90798F7DBCF8091B900887FA9
:103BF000883111F0803409F780E090E0CDB7DEB76E
:103C0000E6E085C11092B9008CE08093B800089579
:103C10000F931F93CF93DF93EB018093BB0084E856
:103C20008093BC002EDE8C018091BC0087FD0CC00F
:103C3000CF3F8FEFD807C1F3C80158DEC817D907A7
:103C400098F78EEF9FEF0CC02091B900287F81E09C
:103C500090E0283211F480E090E0919581959109EF
:103C6000DF91CF911F910F9108950F931F93CF93E1
:103C7000DF93EC0184EC8093BC0003DE8C01809127
:103C8000BC0087FD0CC0CF3F8FEFD807C1F3C80140
:103C90002DDEC817D90798F78EEF9FEF03C08091EC
:103CA000BB0090E0DF91CF911F910F9108950F938A
:103CB0001F93CF93DF93EC0184E88093BC00E1DD98
:103CC0008C018091BC0087FD0CC0CF3F8FEFD807DF
:103CD000C1F3C8010BDEC817D90798F78EEF9FEF25
:103CE00003C08091BB0090E0DF91CF911F910F91B5
:103CF0000895A0E0B0E0EEE7FEE1E5C0682E762E84
:103D00005A016901BEDD4C010431110550F00F3F2D
:103D10008FEF180749F0C80164E170E0BCD0EB01F7
:103D200005C0C1E0D0E002C0C5E0D0E0BE01862DF4
:103D30001BDF7C0197FF0AC00F3F8FEF1807B1F31D
:103D4000C401D4DD0817190788F711C0B801872D01
:103D50005FDF7C01E501CA0CDB1CCC15DD0539F009
:103D6000F7FC05C0B801899153DF7C01F6CF84E9E7
:103D70008093BC00C701CDB7DEB7EEE0C0C0A0E0C5
:103D8000B0E0E4ECFEE19FC0782E662E7A01E901F6
:103D900078DD5C010431110550F00F3F8FEF1807FB
:103DA00051F0C80164E170E076D06B0107C0CC240B
:103DB000C394D12C03C025E0C22ED12CB601872D8F
:103DC000D3DE4C0197FF0AC00F3FEFEF1E07B1F3A0
:103DD000C5018CDD0817190788F727C0B801862DA3
:103DE00017DF4C0197FD21C0F72DF1607F2E49DDD3
:103DF0005C010431110518F10F3F8FEF180719F11D
:103E0000C80164E170E047D06B01B601872DACDEDC
:103E10004C0197FD1CC067012197C6018E199F09AF
:103E20008C179D0748F597FE1CC084E98093BC0061
:103E3000C401181619065CF580E090E028C0CC2477
:103E4000C394D12CE2CF85E0C82ED12CDECF0F3F1A
:103E5000EFEF1E07D1F2C50149DD08171907A8F6D3
:103E6000DACFC80102DF4C0197FD02C0F601808362
:103E7000FFEFCF1ADF0AD1CF97FCD7CFC80117DFEA
:103E80004C0197FDD2CFCE0DDF1D8883CECFCDB7AD
:103E9000DEB7EEE034C0AA1BBB1B51E107C0AA1F6E
:103EA000BB1FA617B70710F0A61BB70B881F991FDB
:103EB0005A95A9F780959095BC01CD0108952F9250
:103EC0003F924F925F926F927F928F929F92AF92AA
:103ED000BF92CF92DF92EF92FF920F931F93CF93F7
:103EE000DF93CDB7DEB7CA1BDB0B0FB6F894DEBF8E
:103EF0000FBECDBF09942A88398848885F846E84B4
:103F00007D848C849B84AA84B984C884DF80EE80FD
:103F1000FD800C811B81AA81B981CE0FD11D0FB606
:103F2000F894DEBF0FBECDBFED010895F999FECF25
:103F300092BD81BDF89A992780B50895A6E1B0E0B9
:103F400044E050E025C0A8E1B0E042E050E020C0ED
:103F5000262FF999FECF92BD81BDF89A019700B442
:103F6000021639F01FBA20BD0FB6F894FA9AF99AE2
:103F70000FBE08950396272FECDFEADF252FE9DF38
:103F8000242FE7CF0196272FE4DFE2CFDC01CB011E
:103F9000FC01F999FECF06C0F2BDE1BDF89A319659
:103FA00000B40D9241505040B8F7089597FB072E8A
:103FB00016F4009406D077FD08D06DDF07FC05D01D
:103FC0003EF4909581959F4F0895709561957F4F30
:103FD0000895EE0FFF1F0590F491E02D0994FB0169
:103FE000DC0104C08D910190801921F441505040B2
:0C3FF000C8F7881B990B0895F894FFCFC8
:103FFC00BB1AC31BBE1BB91BB41BD61B2000000075
:10400C000100F0F1F4F5F6F70000000000000030BC
:10401C00313233929366010101010101010000006C
:10402C0000000000776167646E2F716D764E794CDD
:10403C0000818283E200E900EA00B500B600B70017
:10404C00CD008301CC008A0192019401210223024C
:10405C0024022502260227022A02B300B4006F00B4
:10406C0070009F01CB019F02A0024422476DA00467
:0E407C007E043704CA03F6040F052F0548051D
:00000001FF
